S012000063616C63756C61746F722E73726563E8
S11300000C942A000C9402070C942B070C945407AC
S11300100C9447000C9447000C9473080C9421082A
S11300200C944A080C94F8070C94CF070C94A60778
S11300300C947D070C949C080C9447000C94C50800
S11300400C9416050C9447000C9447000C9447003C
S11300500C94470011241FBECFE5D8E0DEBFCDBF0E
S113006010E0A0E6B0E0E6EBF2E102C005900D92EC
S1130070A639B107D9F721E0A6E9B0E001C01D9285
S1130080A231B207E1F70E9411050C9459090C94AE
S113009000000E943C060E9467040E9445030895E4
S11300A00F931F93E0EDE80F8091050190910601F5
S11300B0A0910701B09108018C019D01000F111F4F
S11300C0221F331FB901A801440F551F661F771F54
S11300D0440F551F661F771FD901C801840F951F50
S11300E0A61FB71FBC01CD016E0F711D811D911D8F
S11300F060930501709306018093070190930801B2
S11301001F910F910895CF92DF92EF92FF921F9368
S1130110CF93DF930E94520380936400843509F4E3
S1130120ACC280538A3098F480910401813021F468
S11301300E94040510920401809164000E94A204AC
S1130140809164000E9450001092020196C280E3E4
S11301500E9450002AE030E040E050E00E94200974
S113016069017A01809164000E94A2048091970041
S1130170E82FF0E0EE0FFF1FEE0FFF1FE856FF4FD2
S1130180C082D182E282F3828F5F809397001092C3
S11301900501109206011092070110920801809146
S11301A06400833481F18D3371F1809104018130D5
S11301B0E9F40E94040560910E0170910F01809191
S11301C010019091110160939800709399008093AD
S11301D09A0090939B0021E0209397000E94A5042D
S11301E0809164000E94A204109204018091960000
S11301F0E82FF0E0E75FFE4F9091640090838F5FFB
S1130200809396003AC28D3309F02FC210920201F6
S113021010E0F9C011112BC08D2F90E0FC01E75FB5
S1130220FE4F20812A3219F59C01220F331F220F21
S1130230331FA90148565F4F7A01FA0120813181A9
S113024042815381FC013196EE0FFF1FEE0FFF1F19
S1130250E856FF4F60817181828193810E94EE088C
S1130260F701608371838283938381E08AC01111D3
S11302702BC04D2F50E0FA01E75FFE4F20812F3253
S113028019F59A01220F331F220F331FC901885613
S11302909F4F7C01FC016081718182819381FA010D
S11302A03196EE0FFF1FEE0FFF1FE856FF4F208120
S11302B03181428153810E942009F70120833183D7
S11302C04283538381E05DC0113059F58D2F90E056
S11302D0FC01E75FFE4F20812B3219F5DC01AA0FE8
S11302E0BB1FAA0FBB1FA856BF4FCD90DD90ED904A
S11302F0FC901397FC013196EE0FFF1FEE0FFF1FCA
S1130300E856FF4F40815181628173814C0D5D1D20
S11303106E1D7F1D4D935D936D937C93139781E0C8
S113032030C0113059F58D2F90E0FC01E75FFE4F8E
S113033020812D3229F5DC01AA0FBB1FAA0FBB1F98
S1130340A856BF4F4D915D916D917C911397FC011F
S11303503196EE0FFF1FEE0FFF1FE856FF4FC080D0
S1130360D180E280F3804C195D096E097F094D93B9
S11303705D936D937C93139781E003C080E001C08B
S113038080E08823B9F121E02D0F1AC0822F90E07C
S1130390FC013196EE0FFF1FEE0FFF1FE856FF4FD3
S11303A04081518162817381880F991F880F991F41
S11303B0FC01E856FF4F40835183628373832F5FB0
S11303C030919700231710F32D2F0BC0822F90E04C
S11303D0FC01E65FFE4F4081FC01E75FFE4F408376
S11303E02F5F2C1798F3315030939700C150C0936E
S11303F09600D150DF5F01C0D0E0C0919600DC17B9
S113040008F408CF1F5F1230B8F3D0E00CC1D1114B
S113041030C0812F90E0FC01E75FFE4F3081ED2F6B
S1130420F0E0E05AFF4F2081321323C09C01220FD9
S1130430331F220F331FA90148565F4F7A01FA0177
S11304402081318142815381FC013196EE0FFF1FDF
S1130450EE0FFF1FE856FF4F608171818281938107
S11304600E94EE08F701608371838283938381E0A5
S113047099C0D13081F5412F50E0FA01E75FFE4F7A
S11304803081ED2FF0E0E05AFF4F2081321323C07A
S11304909A01220F331F220F331FC90188569F4F21
S11304A07C01FC016081718182819381FA01319622
S11304B0EE0FFF1FEE0FFF1FE856FF4F2081318123
S11304C0428153810E942009F701208331834283B2
S11304D0538381E067C0D23081F5812F90E0FC0125
S11304E0E75FFE4F3081ED2FF0E0E05AFF4F2081AF
S11304F0321323C0DC01AA0FBB1FAA0FBB1FA856CF
S1130500BF4FCD90DD90ED90FC901397FC01319698
S1130510EE0FFF1FEE0FFF1FE856FF4F4081518182
S1130520628173814C0D5D1D6E1D7F1D4D935D9326
S11305306D937C93139781E035C0D33081F5812F7F
S113054090E0FC01E75FFE4F3081ED2FF0E0E05AD0
S1130550FF4F2081321325C0DC01AA0FBB1FAA0F55
S1130560BB1FA856BF4F4D915D916D917C91139720
S1130570FC013196EE0FFF1FEE0FFF1FE856FF4FF1
S1130580C080D180E280F3804C195D096E097F0937
S11305904D935D936D937C93139781E003C080E04A
S11305A001C080E08823B1F121E0210F1AC0822F1D
S11305B090E0FC013196EE0FFF1FEE0FFF1FE8568F
S11305C0FF4F4081518162817381880F991F880F89
S11305D0991FFC01E856FF4F408351836283738364
S11305E02F5F30919700231710F3212F0BC0822F18
S11305F090E0FC01E65FFE4F4081FC01E75FFE4FA7
S113060040832F5F2C1798F3315030939700C150DB
S1130610C09396001F5F01C010E0C09196001C17A4
S113062008F4F5CEDF5FD430B8F3C8E9D0E08881B0
S11306309981AA81BB8180930E0190930F01A093AD
S11306401001B093110160E082E00E948604688189
S113065079818A819B810E94A50481E080930401B1
S1130660109297001092960008C0833431F40E94CF
S113067004051092970010929600DF91CF911F917C
S1130680FF90EF90DF90CF900895CF93C0E006C025
S113069061E082E18C0F0E947F06CF5FC430C0F31B
S11306A0CF910895EF92FF920F931F93CF93DF930F
S11306B00F2EF4E5EF2EF02D10E03EC002E1010F05
S11306C060E0802F0E947F06C0E0F12C2EC0C13074
S11306D049F1DBE1DC0F8D2F0E944C06811124C00F
S11306E0812F90E02C2F30E02F193109880F991FAA
S11306F0880F991F8B579F4FFC01E20FF31FE08077
S11307008FED9EE20197F1F700C000008D2F0E944B
S11307104C068823D9F38FED9EE20197F1F700C0D0
S1130720000002C0FF24F394CF5FC53080F261E083
S1130730802F0E947F061F5F143008F4BFCF8E2DD8
S1130740DF91CF911F910F91FF90EF900895CF9378
S1130750C82F60E083E00E947F066C2F661F662727
S1130760661F8CE00E947F06C6FB662760F98AE05C
S11307700E947F06C5FB662760F989E00E947F0618
S1130780C4FB662760F988E00E947F0661E082E08E
S11307900E947F068FE99FE00197F1F700C00000F7
S11307A060E082E00E947F068FE99FE00197F1F705
S11307B000C00000C3FB662760F98CE00E947F063E
S11307C0C2FB662760F98AE00E947F06C1FB6627A8
S11307D060F989E00E947F066C2F617088E00E94B6
S11307E07F0661E082E00E947F068FE99FE0019727
S11307F0F1F700C0000060E082E00E947F068FE90C
S11308009FE00197F1F700C00000CF910895CF93C6
S1130810C82F61E083E00E947F066C2F661F662765
S1130820661F8CE00E947F06C6FB662760F98AE09B
S11308300E947F06C5FB662760F989E00E947F0657
S1130840C4FB662760F988E00E947F0661E082E0CD
S11308500E947F068FE99FE00197F1F700C0000036
S113086060E082E00E947F068FE99FE00197F1F744
S113087000C00000C3FB662760F98CE00E947F067D
S1130880C2FB662760F98AE00E947F06C1FB6627E7
S113089060F989E00E947F066C2F617088E00E94F5
S11308A07F0661E082E00E947F068FE99FE0019766
S11308B0F1F700C0000060E082E00E947F068FE94B
S11308C09FE00197F1F700C00000CF9108952FE752
S11308D085EB91E0215080409040E1F700C000009A
S11308E082E00E94A70388E20E94A7038CE00E9492
S11308F0A70381E00E94A7038FE99FE00197F1F726
S113090000C0000086E00E94A7030895813029F406
S113091080E8860F0E94A7030895823029F480ECB2
S1130920860F0E94A7030895833029F484E9860F73
S11309300E94A7030895843021F484ED860F0E9459
S1130940A70308950E9407040895CF92DF92EF92BF
S1130950FF921F93CF93DF93CDB7DEB72A970FB6DD
S1130960F894DEBF0FBECDBF6B017C01611571052C
S11309708105910521F480E30E94A2040DC099230E
S11309805CF48DE20E94A204F094E094D094C094AC
S1130990C11CD11CE11CF11C10E015C0C701B6013B
S11309A02AE030E040E050E00E942009E1E0F0E07D
S11309B0EC0FFD1FE10FF11D605D6083C22ED32E8D
S11309C0E42EF52E1F5F1C141D041E041F0434F3B3
S11309D011500AC0E1E0F0E0EC0FFD1FE10FF11D42
S11309E080810E94A20411501F3FA1F72A960FB6DE
S11309F0F894DEBF0FBECDBFDF91CF911F91FF9062
S1130A00EF90DF90CF90089581E00E94A7038FE3D9
S1130A109FE10197F1F700C0000080E80E94A7035E
S1130A2008950E9449000E948300FDCF1F920F92F7
S1130A300FB60F9211242F933F934F935F936F93AD
S1130A407F938F939F93AF93BF93EF93FF93E09123
S1130A50E800F091E900309709F00995FF91EF91D2
S1130A60BF91AF919F918F917F916F915F914F91C2
S1130A703F912F910F900FBE0F901F901895982FB4
S1130A809770869586958695613009F455C020F057
S1130A90623009F4A1C008958130C1F028F0823099
S1130AA039F18330B9F108954AB321E030E0B90156
S1130AB002C0660F771F9A95E2F7CB01942F982B0B
S1130AC09ABB9BB3809589238BBB089547B321E0E0
S1130AD030E0B90102C0660F771F9A95E2F7CB01A7
S1130AE0942F982B97BB98B38095892388BB08953E
S1130AF044B321E030E0B90102C0660F771F9A9534
S1130B00E2F7CB01942F982B94BB95B3809589235E
S1130B1085BB089541B321E030E0B90102C0660FFE
S1130B20771F9A95E2F7CB01942F982B91BB92B340
S1130B308095892382BB08958130C1F028F08230EA
S1130B4039F18330B9F108954AB321E030E0B901B5
S1130B5002C0660F771F9A95E2F7CB018095942F18
S1130B6098239ABB9BB389238BBB089547B321E099
S1130B7030E0B90102C0660F771F9A95E2F7CB0106
S1130B808095942F982397BB98B3892388BB0895A5
S1130B9044B321E030E0B90102C0660F771F9A9593
S1130BA0E2F7CB018095942F982394BB95B38923C6
S1130BB085BB089541B321E030E0B90102C0660F5E
S1130BC0771F9A95E2F7CB018095942F982391BBD8
S1130BD092B3892382BB08958130C1F028F082301A
S1130BE039F18330B9F108954AB321E030E0B90115
S1130BF002C0660F771F9A95E2F7CB01962F909566
S1130C0094239ABB9BB3892B8BBB089547B321E0F4
S1130C1030E0B90102C0660F771F9A95E2F7CB0165
S1130C20962F9095942397BB98B3892B88BB0895EE
S1130C3044B321E030E0B90102C0660F771F9A95F2
S1130C40E2F7CB01962F9095942394BB95B3892B0F
S1130C5085BB089541B321E030E0B90102C0660FBD
S1130C60771F9A95E2F7CB01962F9095942391BB29
S1130C7092B3892B82BB0895CF93C0E009C0EC2FB7
S1130C80F0E0EB59FF4F60818C2F0E943F05CF5F4E
S1130C90C032A8F3CF910895282F277086958695A2
S1130CA08695813079F028F08230A9F08330E1F024
S1130CB024C089B390E002C0959587952A95E2F700
S1130CC08170089586B390E002C0959587952A9522
S1130CD0E2F78170089583B390E002C095958795FB
S1130CE02A95E2F78170089580B390E002C095954B
S1130CF087952A95E2F78170089580E00895982FEA
S1130D0097708695869586956130E1F5813099F0E6
S1130D1028F08230E9F0833041F108954BB321E0AB
S1130D2030E0B90102C0660F771F9A95E2F7CB0154
S1130D30842B8BBB089548B321E030E0B90102C095
S1130D40660F771F9A95E2F7CB01842B88BB089531
S1130D5045B321E030E0B90102C0660F771F9A95D0
S1130D60E2F7CB01842B85BB089542B321E030E048
S1130D70B90102C0660F771F9A95E2F7CB01842B65
S1130D8082BB08958130A1F028F08230F9F08330DD
S1130D9059F108954BB321E030E0B90102C0660F68
S1130DA0771F9A95E2F7CB01809584238BBB089536
S1130DB048B321E030E0B90102C0660F771F9A956D
S1130DC0E2F7CB018095842388BB089545B321E0E5
S1130DD030E0B90102C0660F771F9A95E2F7CB01A4
S1130DE08095842385BB089542B321E030E0B901A6
S1130DF002C0660F771F9A95E2F7CB018095842392
S1130E0082BB08951F920F920FB60F9211242F9355
S1130E103F934F935F936F937F938F939F93AF937E
S1130E20BF93EF93FF93E091EE00F091EF003097C2
S1130E3009F00995FF91EF91BF91AF919F918F9127
S1130E407F916F915F914F913F912F910F900FBEC2
S1130E500F901F9018951F920F920FB60F921124A6
S1130E602F933F934F935F936F937F938F939F93AE
S1130E70AF93BF93EF93FF93E091EC00F091ED00FB
S1130E80309709F00995FF91EF91BF91AF919F9130
S1130E908F917F916F915F914F913F912F910F901F
S1130EA00FBE0F901F9018951F920F920FB60F92BE
S1130EB011242F933F934F935F936F937F938F935B
S1130EC09F93AF93BF93EF93FF93E091EA00F09168
S1130ED0EB00309709F00995FF91EF91BF91AF9125
S1130EE09F918F917F916F915F914F913F912F913E
S1130EF00F900FBE0F901F9018951F920F920FB670
S1130F000F9211242F933F934F935F936F937F938B
S1130F108F939F93AF93BF93EF93FF93E091F00070
S1130F20F091F100309709F00995FF91EF91BF918D
S1130F30AF919F918F917F916F915F914F913F916D
S1130F402F910F900FBE0F901F9018951F920F9224
S1130F500FB60F9211242F933F934F935F936F9388
S1130F607F938F939F93AF93BF93EF93FF93E091FE
S1130F70F400F091F500309709F00995FF91EF9195
S1130F80BF91AF919F918F917F916F915F914F919D
S1130F903F912F910F900FBE0F901F9018951F92A5
S1130FA00F920FB60F9211242F933F934F935F9399
S1130FB06F937F938F939F93AF93BF93EF93FF931D
S1130FC0E091F200F091F300309709F00995FF9158
S1130FD0EF91BF91AF919F918F917F916F915F91AD
S1130FE04F913F912F910F900FBE0F901F90189526
S1130FF01F920F920FB60F9211242F933F934F938A
S11310005F936F937F938F939F93AF93BF93EF936C
S1131010FF93E091FC00F091FD00309709F00995F1
S1131020FF91EF91BF91AF919F918F917F916F91BC
S11310305F914F913F912F910F900FBE0F901F9092
S113104018951F920F920FB60F9211242F933F936E
S11310504F935F936F937F938F939F93AF93BF93BC
S1131060EF93FF93E091FA00F091FB00309709F0C1
S11310700995FF91EF91BF91AF919F918F917F91CE
S11310806F915F914F913F912F910F900FBE0F90F1
S11310901F9018951F920F920FB60F9211242F9341
S11310A03F934F935F936F937F938F939F93AF93EC
S11310B0BF93EF93FF93E091F800F091F90030971C
S11310C009F00995FF91EF91BF91AF919F918F9195
S11310D07F916F915F914F913F912F910F900FBE30
S11310E00F901F9018951F920F920FB60F92112414
S11310F02F933F934F935F936F937F938F939F931C
S1131100AF93BF93EF93FF93E091F600F091F70054
S1131110309709F00995FF91EF91BF91AF919F919D
S11311208F917F916F915F914F913F912F910F908C
S11311300FBE0F901F9018951F920F920FB60F922B
S113114011242F933F934F935F936F937F938F93C8
S11311509F93AF93BF93EF93FF93E0910001F091BE
S11311600101309709F00995FF91EF91BF91AF917B
S11311709F918F917F916F915F914F913F912F91AB
S11311800F900FBE0F901F9018951F920F920FB6DD
S11311900F9211242F933F934F935F936F937F93F9
S11311A08F939F93AF93BF93EF93FF93E091FE00D0
S11311B0F091FF00309709F00995FF91EF91BF91ED
S11311C0AF919F918F917F916F915F914F913F91DB
S11311D02F910F900FBE0F901F901895DB018F93E6
S11311E09F930E944E09BF91AF91A29F800D911DC4
S11311F0A39F900DB29F900D11240895A1E21A2E81
S1131200AA1BBB1BFD010DC0AA1FBB1FEE1FFF1FA6
S1131210A217B307E407F50720F0A21BB30BE40BF6
S1131220F50B661F771F881F991F1A9469F760953D
S11312307095809590959B01AC01BD01CF010895F7
S1131240052E97FB1EF400940E94370957FD07D022
S11312500E94FE0807FC03D04EF40C943709509505
S11312604095309521953F4F4F4F5F4F089590958E
S11312708095709561957F4F8F4F9F4F0895A29FE2
S1131280B001B39FC001A39F700D811D1124911D56
S1131290B29F700D811D1124911D08950E943F0974
S11312A0A59F900DB49F900DA49F800D911D1124B6
S10912B00895F894FFCF3D
S11312B62A2F2B2D5401010000000000010000001C
S11312C60000000000020200000000000000000010
S11312D600000202022B3D30432D3332312A3635CB
S10912E6342F39383700F3
S9030000FC
